:10000000E9EF21F00000000000EF00F00000000028
:0A0010000000000000000000F3D71C
:08001C000AAE029E000E120064
:100024000B840BAE1DEF00F0010E036E026A016A31
:0A003400006A0A360232FF0E1200C5
:0E003E00026A016A006A086A036A000E120074
:10004C000B820BAE30EF00F00368026801680068A9
:08005C000A360232FF0E120009
:100064000CB074EF00F00CA21AEF01F00E6A000E4F
:1000740002648BEF00F0F00E0214D8A456EF00F0E7
:10008400023A01380F0B02260138F00B016E0038DA
:100094000F0B01260038F00B006E08380F0B0026FA
:1000A4000838F00B086E0E84D89002BE6FEF00F093
:1000B40008360036013602360E2A02BE6FEF00F013
:1000C40008360036013602360E2A02BE6FEF00F003
:1000D40008360036013602360E2A0E50036410EF3D
:1000E40001F0035E0BBC08AE15EF01F0D880800E62
:1000F40008640030000E002201220222D8A015EF6D
:1001040001F0023201320032034A1AEF01F015EF16
:1001140001F001C002F000C001F008C000F0086A5C
:10012400000E0E860264C2EF00F0F00E0214D8A492
:10013400AAEF00F0023A01380F0B02260138F00B47
:10014400016E00380F0B01260038F00B006E0E8490
:10015400D89002BE6FEF00F00036013602360E2A48
:1001640002BE6FEF00F00036013602360E2A02BEE0
:100174006FEF00F00036013602360E2A6FEF00F002
:1001840001C002F000C001F0006A000E0E960E8855
:100194000264EFEF00F0F00E0214D8A4DAEF00F0DE
:1001A400023A01380F0B02260138F00B016E0E845F
:1001B400D89002BE6FEF00F0013602360E2A02BE5E
:1001C4006FEF00F0013602360E2A02BE6FEF00F028
:1001D400013602360E2A6FEF00F001C002F0016A08
:1001E400000E0E8602641FEF01F0F00E0214D8A474
:1001F400FEEF00F0023A0E84D89002BE6FEF00F0DA
:1002040002360E2A02BE6FEF00F002360E2A02BE3C
:100214006FEF00F002360E2A6FEF00F0010E0C6E45
:10022400FFDE22EF01F0020E0C6EF6DE22EF01F08B
:10023400040E0C6E09DF22EF01F0080E0C6EFDDED9
:020244001200A6
:10024600086A096A000E07620364A8EF01F002500B
:1002560006180A6E075003267E0ED8A039EF01F065
:10026600035ED8B0ACEF01F03DEF01F0035ED8A01D
:10027600B0EF01F0028E068E02C00EF001C00BF048
:1002860000C00DF000500402F4CF0CF0015005023E
:10029600F4CF00F0F3CF08F00402F3500C26F4502C
:1002A6000822000E00220D500502F3500C26F450D1
:1002B6000822000E002202500402F3500826F450D1
:1002C600002202500502016A000E0122F3500026A8
:1002D600F45001220D500602F3500826F450002275
:1002E600026A000E012202220B500602F35000267B
:1002F600F4500122000E02220E500602F35001268F
:10030600F450022202BE90EF01F0083600360136A4
:1003160002360306D8B4B0EF01F0A3EF01F0D8809F
:10032600800E08640030000E002201220222D8A0AE
:10033600A3EF01F0023201320032034AACEF01F0C2
:100346000AAE029E000EB2EF01F0010E75DEB2EFAC
:1003560001F0020E78DEB2EF01F0040E60DE12004C
:10036600086A080E0C6E003408360450085ED8B0D1
:0E03760002D00826D89000360C2EF5D71200C3
:100384000B800BAECEEF01F0026A0AAEFF0E026ED6
:0C039400016E006E0A360232FF0E1200ED
:0803A0000B6A0B86FF0E120030
:1003A8000D6A086A0050D8B4000C04180A6E0ABE18
:1003B8000D1E0B6A04AE02D0041E042A00AE02D041
:1003C800001E002A005004100A6E0ABE1FD00450F6
:1003D800085E003600340836045008260036060E3B
:1003E8000C6E00340836045000B0085E00A00826E1
:1003F80000360C2EF6D700A008260BB015D00DAE8F
:10040800000C001E002A081E082A000C04AE09D0A1
:1004180000BE04D00050086E006AF1D7006A002AB6
:10042800000C001E0B2AD3D7082A0450085CD8A455
:0E043800E6D7086A002A00AEE2D7FF0C1200D9
:10044600E5C3C9FF016A0150000A05E1000EC7B005
:0C045600010E016EF8D7C9CF01F01200B2
:10046200025006180E6E086A096A0B6A0350076486
:1004720024EF03F006500A6E068E028E03500B6EB6
:100482000750036E000E0B6474EF02F00B50075E10
:10049200D8B415EF03F0070E0764E3EF02F0075E2E
:1004A20000C008F001C000F002C001F0026A074E6D
:1004B20015EF03F00764B8EF02F0075E00C008F022
:1004C20001C000F0016A074E15EF03F0076496EFD2
:1004D20002F0075E00C008F0006A074E15EF03F055
:1004E20007647DEF02F00AC002F005C001F004C00B
:1004F20000F0086A40EF04F0030E076488EF02F090
:10050200075E08380F0B086E074E15EF03F0D89000
:100512000832074E15EF03F0D8900832074E15EF58
:1005220003F0D890083215EF03F0030E0764A7EF2B
:1005320002F0075E08380F0B086E0038F00B082631
:1005420000380F0B006E074E15EF03F0D890003203
:100552000832074E15EF03F0D89000320832074EEA
:1005620015EF03F0D8900032083215EF03F0030EB6
:100572000764CFEF02F0075E08380F0B086E0038F1
:10058200F00B082600380F0B006E0138F00B002626
:1005920001380F0B016E074E15EF03F0D8900132B0
:1005A20000320832074E15EF03F0D89001320032C4
:1005B2000832074E15EF03F0D890013200320832AC
:1005C20015EF03F0030E076400EF03F0075E08382F
:1005D2000F0B086E0038F00B082600380F0B006E68
:1005E2000138F00B002601380F0B016E0238F00BB8
:1005F200012602380F0B026E074E15EF03F0D8905A
:100602000232013200320832074E15EF03F0D89061
:100612000232013200320832074E15EF03F0D89051
:100622000232013200320832096A000E0EAE09EFC0
:1006320004F0081E001E011E021E082A00220122CA
:10064200022209EF04F00750D8A42AEF03F040EF8A
:1006520004F0096A02C00AF0028E068E0750035C9B
:10066200076ED8B4FCEF03F0070E0764CAEF03F07D
:10067200075E0450096E0550046E0650056E066A48
:10068200074EFCEF03F0070E07649FEF03F0075ECF
:100692000450096E0550046E056A074EFCEF03F024
:1006A200070E07647DEF03F0075E0450096E046ACB
:1006B200074EFCEF03F0070E076464EF03F00AC075
:1006C20002F040EF04F0030E07646FEF03F0075EE1
:1006D20009380F0B096E074EFCEF03F0D890093270
:1006E200074EFCEF03F0D8900932074EFCEF03F0FF
:1006F200D8900932FCEF03F0030E07648EEF03F08B
:10070200075E09380F0B096E0438F00B092604380E
:100712000F0B046E074EFCEF03F0D890043209323F
:10072200074EFCEF03F0D89004320932074EFCEF7B
:1007320003F0D89004320932FCEF03F0030E076491
:10074200B6EF03F0075E09380F0B096E0438F00BA1
:10075200092604380F0B046E0538F00B0426053801
:100762000F0B056E074EFCEF03F0D89005320432F2
:100772000932074EFCEF03F0D890053204320932F9
:10078200074EFCEF03F0D890053204320932FCEF39
:1007920003F0030E0764E7EF03F0075E09380F0B5F
:1007A200096E0438F00B092604380F0B046E053865
:1007B200F00B042605380F0B056E0638F00B0526E4
:1007C20006380F0B066E074EFCEF03F0D890063288
:1007D200053204320932074EFCEF03F0D89006329C
:1007E200053204320932074EFCEF03F0D89006328C
:1007F200053204320932086A000E0EAE09EF04F027
:10080200091E041E051E061E092A042205220622AE
:1008120009500826045000220550012206500222E7
:100822000EBE20EF04F0D8A02FEF04F00232013206
:1008320000320832033E2FEF04F03AEF04F0D8B052
:1008420034EF04F0000E081E001E011E021E082ACC
:100852000022012202220A7E34EF04F0010E0C6E05
:1008620000DC42EF04F0020E0C6E32EC00F042EFBC
:1008720004F0040E0C6E26EC00F042EF04F0000EC1
:040882000C6E1200E6
:100886000134083609360450085E0550D8A0053CE8
:10089600095E003601360F0E0C6E01340836093635
:1008A600045000A006D0085E0550D8A0053C095E9D
:1008B60005D008260550D8B0053C09260036013675
:1008C6000C2EEBD700B006D0045008260550D8B041
:0808D600053C09260000120098
:1008DE000A6A0350D8A40A800750D8A40A820A5084
:1008EE00D8B4D2EF04F0030AD8B48BEF04F00AB0F8
:1008FE0086EF04F006AED0EF04F0CEEF04F002AEB9
:10090E00CEEF04F0D0EF04F00250800B0A6E029E80
:10091E000650800B069E0A18D8B49CEF04F00A50BD
:10092E00D8B4CEEF04F0D0EF04F00750035CD8B487
:10093E00A6EF04F0D8A0C2EF04F0C8EF04F0065002
:10094E00025CD8B4B0EF04F0D8A0C2EF04F0C8EF48
:10095E0004F00550015CD8B4BAEF04F0D8A0C2EF91
:10096E0004F0C8EF04F00450005CD8B4D2EF04F0E9
:10097E00D8B0C8EF04F00A52D8B4D0EF04F0CEEFDE
:10098E0004F00A52D8B4CEEF04F0D0EF04F0D880C1
:0E099E001200D8901200D880D88412001200E7
:1009AC000B6A0A6A096A00500402F4CF09F0F3CF0B
:1009BC0008F001500502F4CF0BF0F3CF0AF0005011
:1009CC000502F3500926F4500A22E86A0B22015062
:1009DC000402F3500926F4500A22E86A0B2208C0DC
:1009EC0000F009C001F00AC002F00BC003F01200C5
:1009FC000B6A0A6A096A086A0E6A033408360450DC
:100A0C00085E0550D8A0053C095E0650D8A0063CEF
:100A1C000A5E0750D8A0073C0B5EE86AD8A0010E0E
:100A2C000E5E0336070E0C6E0334083609360A3692
:100A3C000B360E36045003A012D0085E0550D8A019
:100A4C00053C095E0650D8A0063C0A5E0750D8A0AB
:100A5C00073C0B5EE86AD8A0010E0E5E11D008268A
:100A6C000550D8B0053C09260650D8B0063C0A26DD
:100A7C000750D8B0073C0B26E86AD8B0010E0E26FA
:100A8C0003360C2ED1D70234083609360A360B360B
:100A9C000E36045003A012D0085E0550D8A0053CB9
:100AAC00095E0650D8A0063C0A5E0750D8A0073C49
:100ABC000B5EE86AD8A0010E0E5E11D00826055018
:100ACC00D8B0053C09260650D8B0063C0A2607507B
:100ADC00D8B0073C0B26E86AD8B0010E0E260236B9
:100AEC00070E0C6E0234083609360A360B360E36F3
:100AFC00045002A012D0085E0550D8A0053C095E37
:100B0C000650D8A0063C0A5E0750D8A0073C0B5EE6
:100B1C00E86AD8A0010E0E5E11D008260550D8B098
:100B2C00053C09260650D8B0063C0A260750D8B01A
:100B3C00073C0B26E86AD8B0010E0E2602360C2EA6
:100B4C00D1D70134083609360A360B360E36045026
:100B5C0002A012D0085E0550D8A0053C095E0650D4
:100B6C00D8A0063C0A5E0750D8A0073C0B5EE86A8A
:100B7C00D8A0010E0E5E11D008260550D8B0053C49
:100B8C0009260650D8B0063C0A260750D8B0073CB8
:100B9C000B26E86AD8B0010E0E260136070E0C6E35
:100BAC000134083609360A360B360E36045001A0CD
:100BBC0012D0085E0550D8A0053C095E0650D8A09E
:100BCC00063C0A5E0750D8A0073C0B5EE86AD8A02A
:100BDC00010E0E5E11D008260550D8B0053C092632
:100BEC000650D8B0063C0A260750D8B0073C0B2656
:100BFC00E86AD8B0010E0E2601360C2ED1D700347F
:100C0C00083609360A360B360E36045001A012D0BF
:100C1C00085E0550D8A0053C095E0650D8A0063CDD
:100C2C000A5E0750D8A0073C0B5EE86AD8A0010EFC
:100C3C000E5E11D008260550D8B0053C092606508A
:100C4C00D8B0063C0A260750D8B0073C0B26E86AF9
:100C5C00D8B0010E0E260036070E0C6E0034083686
:100C6C0009360A360B360E36045000A012D0085E38
:100C7C000550D8A0053C095E0650D8A0063C0A5E7B
:100C8C000750D8A0073C0B5EE86AD8A0010E0E5E98
:100C9C0011D008260550D8B0053C09260650D8B00E
:100CAC00063C0A260750D8B0073C0B26E86AD8B099
:100CBC00010E0E2600360C2ED1D700B00ED00450EB
:100CCC0008260550D8B0053C09260650D8B0063C7D
:0C0CDC000A260750D8B0073C0B26120077
:100CE8000050086E0150006E0250016E0350026EF3
:100CF800036A0B6A0C6A9E0E036E0A6A020E0C6E79
:060D080032EC00F01200C5
:100D0E000450000A12E10550000A0FE10650000AD5
:100D1E000CE10750000A09E1FF0E006EFF0E016E96
:100D2E007F0E026EFF0E036EA8D0086A096A075086
:100D3E00D8B432EF07F00350D8B437EF07F00250B3
:100D4E0006180A6E028E068E0E6A02C008F001C0E8
:100D5E000CF000C00DF004500D5E0550D8A0053CFF
:100D6E000C5E0650D8A0063C085E086A0C6A0D6A36
:100D7E00D8A0C9EF06F0D890023201320032083204
:100D8E00010E0E6E0750035ED8A0D6EF06F07E0E53
:100D9E000E240326D8B03CEF07F0DCEF06F07E0EF3
:100DAE000E240326D8A041EF07F0180E0B6E0D3659
:100DBE000C3608360036013602360E360450005E0A
:100DCE000550D8A0053C015E0650D8A0063C025E38
:100DDE0006340E120EA0F7EF06F00D8002EF07F0AC
:100DEE00045000260550D8B0053C01260650D8B058
:100DFE00062802260D900B2EDEEF06F028EF07F0E8
:100E0E00D8900036013602360E360450005E05507C
:100E1E00D8A0053C015E0650D8A0063C025E063402
:100E2E000E10010B0D26D8B00C2AD8B4082AD8A45F
:100E3E0028EF07F008320C320D32032AD8B43CEFFB
:100E4E0007F00AAE089E0850026E0C50016E0D504F
:100E5E00006E44EF07F0010ED0EC01F044EF07F006
:100E6E00020E1FEC00F044EF07F0040E26EC00F02B
:0C0E7E0044EF07F0080E12EC00F0120028
:100E8A00800E0301E019006E800E000A005CD8B0E3
:100E9A006DD1E0510008016E01C0E0F3800E011827
:100EAA00006E800E6E0A005CD8A0C0D0640E046E7C
:100EBA00E0C300F0D4EC01F0120E0024056E000E1F
:100ECA0000BEFF0E066E000E062205C000F006C028
:100EDA0001F0000E06BEFF0E026E036E0036009091
:100EEA0001360236033600360090013602360336E2
:100EFA001C0E0024F66E480E0120F76E000E02202A
:100F0A00F86E0900F5CFE1F30900F5CFE2F3090025
:100F1A00F5CFE3F30900F5CFE4F3640E046EE0C302
:100F2A0000F0D4EC01F008C000F00A0E046ED4EC14
:100F3A0001F0090E0024056E000E00BEFF0E066EBB
:100F4A00000E062205C000F006C001F0000E06BE23
:100F5A00FF0E026E036E003600900136023603362B
:100F6A00003600900136023603361C0E0024F66E57
:100F7A00480E0120F76E000E0220F86E0900F5CF28
:100F8A0000F00900F5CF01F00900F5CF02F00900E1
:100F9A00F5CF03F0E1C304F0E2C305F0E3C306F0C2
:100FAA00E4C307F023EC01F000C0E1F301C0E2F36F
:100FBA0002C0E3F303C0E4F30A0E046EE0C300F0D8
:100FCA00D4EC01F008C000F000C001F0000E00BE31
:100FDA00FF0E026E036E046E01360190023603366E
:100FEA000436013601900236033604361C0E0124FB
:100FFA00F66E480E0220F76E000E0320F86E090006
:10100A00F5CF00F00900F5CF01F00900F5CF02F0A5
:10101A000900F5CF03F0E1C304F0E2C305F0E3C32E
:10102A0006F0E4C307F023EC01F007D2800E0A0AA7
:10103A00006E800EE019005C71E20A0E046EE0C3D5
:10104A0000F0D4EC01F0090E0024056E000E00BE7B
:10105A00FF0E066E000E062205C000F006C001F063
:10106A00000E06BEFF0E026E036E003600900136B9
:10107A0002360336003600900136023603361C0E5D
:10108A000024F66E480E0120F76E000E0220F86E5C
:10109A000900F5CFE1F30900F5CFE2F30900F5CF36
:1010AA00E3F30900F5CFE4F30A0E046EE0C300F09F
:1010BA00D4EC01F008C000F000C001F0000E00BE40
:1010CA00FF0E026E036E046E01360190023603367D
:1010DA000436013601900236033604361C0E01240A
:1010EA00F66E480E0220F76E000E0320F86E090015
:1010FA00F5CF00F00900F5CF01F00900F5CF02F0B5
:10110A000900F5CF03F0E1C304F0E2C305F0E3C33D
:10111A0006F0E4C307F023EC01F08FD1E0C300F03E
:10112A00000EE0BFFF0E016E026E036E00360090E5
:10113A00013602360336003600900136023603368F
:10114A001C0E0024F66E480E0120F76E000E0220D7
:10115A00F86E0900F5CF00F00900F5CF01F009009B
:10116A00F5CF02F00900F5CF03F067D1800EE01940
:10117A00006E800E6E0A005CD8A0C0D0640E046EA9
:10118A00E0C300F0D4EC01F0120E0024056E000E4C
:10119A0000BEFF0E066E000E062205C000F006C055
:1011AA0001F0000E06BEFF0E026E036E00360090BE
:1011BA00013602360336003600900136023603360F
:1011CA00500E0024F66E480E0120F76E000E022023
:1011DA00F86E0900F5CFE1F30900F5CFE2F3090053
:1011EA00F5CFE3F30900F5CFE4F3640E046EE0C330
:1011FA0000F0D4EC01F008C000F00A0E046ED4EC42
:10120A0001F0090E0024056E000E00BEFF0E066EE8
:10121A00000E062205C000F006C001F0000E06BE50
:10122A00FF0E026E036E0036009001360236033658
:10123A0000360090013602360336500E0024F66E50
:10124A00480E0120F76E000E0220F86E0900F5CF55
:10125A0000F00900F5CF01F00900F5CF02F009000E
:10126A00F5CF03F0E1C304F0E2C305F0E3C306F0EF
:10127A00E4C307F023EC01F000C0E1F301C0E2F39C
:10128A0002C0E3F303C0E4F30A0E046EE0C300F005
:10129A00D4EC01F008C000F000C001F0000E00BE5E
:1012AA00FF0E026E036E046E01360190023603369B
:1012BA00043601360190023603360436500E0124F4
:1012CA00F66E480E0220F76E000E0320F86E090033
:1012DA00F5CF00F00900F5CF01F00900F5CF02F0D3
:1012EA000900F5CF03F0E1C304F0E2C305F0E3C35C
:1012FA0006F0E4C307F023EC01F09FD0800E0A0A3F
:10130A00006E800EE019005C71E20A0E046EE0C302
:10131A0000F0D4EC01F0090E0024056E000E00BEA8
:10132A00FF0E066E000E062205C000F006C001F090
:10133A00000E06BEFF0E026E036E003600900136E6
:10134A000236033600360090013602360336500E56
:10135A000024F66E480E0120F76E000E0220F86E89
:10136A000900F5CFE1F30900F5CFE2F30900F5CF63
:10137A00E3F30900F5CFE4F30A0E046EE0C300F0CC
:10138A00D4EC01F008C000F000C001F0000E00BE6D
:10139A00FF0E026E036E046E0136019002360336AA
:1013AA00043601360190023603360436500E012403
:1013BA00F66E480E0220F76E000E0320F86E090042
:1013CA00F5CF00F00900F5CF01F00900F5CF02F0E2
:1013DA000900F5CF03F0E1C304F0E2C305F0E3C36B
:1013EA0006F0E4C307F023EC01F027D0E0C300F0D5
:1013FA00000EE0BFFF0E016E026E036E0036009013
:10140A0001360236033600360090013602360336BC
:10141A00500E0024F66E480E0120F76E000E0220D0
:10142A00F86E0900F5CF00F00900F5CF01F00900C8
:0C143A00F5CF02F00900F5CF03F012001E
:101446000B6A0C6A0A6A086A0350D8B4ABEF0AF052
:10145600028E9E0E035E03BE36EF0AF0D8B436EF58
:101466000AF09BEF0AF0036C080E035CD8A068EF45
:101476000AF0036E083600C008F001C000F002C092
:1014860001F0026A080E035CD8A068EF0AF0036E4A
:10149600083600C008F001C000F0016A080E035CBF
:1014A600D8A068EF0AF0036E083600C008F0006A9C
:1014B600080E035CD8A068EF0AF0036E0836086AC7
:1014C6000350D8A4D89074EF0AF00350D8B474EF40
:1014D6000AF0D8900232013200320832032E6CEF45
:1014E6000AF00BBC08A085EF0AF0D8A085EF0AF039
:1014F600082AD8B4002AD8B4012AD8B4022A02BECF
:10150600AFEF0AF00AAEABEF0AF0021E011E001E94
:10151600081E082AD8B4002AD8B4012AD8B4022A48
:10152600ABEF0AF0026A016A006A086AABEF0AF0DA
:101536000B800BAEB5EF0AF0026A0AAEB5EF0AF001
:10154600026E016E006E086E0A360232B5EF0AF0C0
:10155600000E0C6AB6EF0AF0010E0C6EC2EC01F03A
:10156600B6EF0AF0FF0E0250036E0150026E0050F5
:08157600016E0850006E120026
:10157E0003500718D8A4D3EF0AF002500618D8A4C7
:10158E00D3EF0AF001500518D8A4D3EF0AF000509B
:0E159E000418D8B4D8841200D8941200120099
:0A15AC00000EA4BA010E006E12003A
:1015B6000B6A0C6A086A0350D8B45FEF0BF002C0DE
:1015C6000AF0028E9E0E035E03AE4FEF0BF0036C25
:1015D600080E035CD8A01CEF0BF0036E083600C0A3
:1015E60008F001C000F002C001F0026A080E035CB8
:1015F600D8A01CEF0BF0036E083600C008F001C03F
:1016060000F0016A080E035CD8A01CEF0BF0036E15
:10161600083600C008F0006A080E035CD8A01CEF6C
:101626000BF0036E0836086A0350D8A4D89028EF4A
:101636000BF00350D8B428EF0BF0D89002320132E9
:1016460000320832032E20EF0BF00BBC08A039EF56
:101656000BF0D8A039EF0BF0082AD8B4002AD8B47A
:10166600012AD8B4022A02BE63EF0BF00AAE5FEF7E
:101676000BF0021E011E001E081E082AD8B4002AFE
:10168600D8B4012AD8B4022A5FEF0BF0026A016AC5
:10169600006A086A5FEF0BF00B800BAE6AEF0BF087
:1016A600026A0AAE6AEF0BF0026E016E006E086EF9
:1016B6000A3602326AEF0BF00C6A000E6BEF0BF083
:1016C600010E0C6E000EC2EC01F06BEF0BF0FF0E7C
:1016D6000250036E0150026E0050016E0850006EFB
:0216E6001200F0
:1016E8000450000A08E10550000A05E1FF0E006EEB
:1016F8007F0E016E58D00D6A096A086A0150001001
:10170800D8B4000C015005180A6E0ABE0D1E0B6AEB
:1017180005AE05D0041E051E042AD8B4052A01AE5C
:1017280005D0001E011E002AD8B4012A0150051058
:101738000A6E0ABE10D043EC04F00BB020D00DAEF8
:10174800000C001E011E002AD8B4012A081E091E1A
:10175800082AD8B4092A000C05AE0DD001BE07D05E
:101768000150096E0050086E016A006AE8D7016AE4
:10177800006A002A000C011E001E0B2ADDD7082A69
:10178800D8B4092A0450085CD8A4D9D70550095CF4
:10179800D8A4D5D7096A086A002AD8B4012A01AEA4
:0817A800CED70000FF0C120077
:1017B000AACF01F09CA202D09C989C8801C000F0A6
:0217C000120015
:1017C2006E0E0301E05DD8A0CAD0640E046EE0C3C1
:1017D20000F0B3EC01F0120E0024056E066A000E52
:1017E200062205C000F006C001F0000E06BEFF0E84
:1017F200026E036E00360090013602360336003662
:1018020000900136023603361C0E0024F66E480E96
:101812000120F76E000E0220F86E0900F5CF00F0ED
:101822000900F5CF01F00900F5CF02F00900F5CF6C
:1018320003F0000E046E000E056E000E066E7E0EA4
:10184200076E23EC01F000C0E1F301C0E2F302C035
:10185200E3F303C0E4F3640E046EE0C300F0B3EC00
:1018620001F008C000F00A0E046EB3EC01F0090E9C
:101872000024056E066A000E062205C000F006C0AE
:1018820001F0000E06BEFF0E026E036E00360090DF
:101892000136023603360036009001360236033630
:1018A2001C0E0024F66E480E0120F76E000E022078
:1018B200F86E0900F5CF00F00900F5CF01F009003C
:1018C200F5CF02F00900F5CF03F0E1C304F0E2C363
:1018D20005F0E3C306F0E4C307F023EC01F000C017
:1018E200E1F301C0E2F302C0E3F303C0E4F30A0E42
:1018F200046EE0C300F0B3EC01F008C000F000C0D9
:1019020001F0000E026E036E046E01360190023683
:1019120003360436013601900236033604361C0EB5
:101922000124F66E480E0220F76E000E0320F86EB8
:101932000900F5CF00F00900F5CF01F00900F5CF5D
:1019420002F00900F5CF03F0E1C304F0E2C305F0B1
:10195200E3C306F0E4C307F023EC01F0B1D0E05199
:101962000A08D8B07ED00A0E046EE0C300F0B3ECD1
:1019720001F0090E0024056E066A000E062205C05B
:1019820000F006C001F0000E06BEFF0E026E036EEE
:1019920000360090013602360336003600900136DA
:1019A200023603361C0E0024F66E480E0120F76E36
:1019B200000E0220F86E0900F5CF00F00900F5CF05
:1019C20001F00900F5CF02F00900F5CF03F0000E97
:1019D200046E000E056E000E066E7E0E076E23EC80
:1019E20001F000C0E1F301C0E2F302C0E3F303C07F
:1019F200E4F30A0E046EE0C300F0B3EC01F008C099
:101A020000F000C001F0000E026E036E046E01369B
:101A1200019002360336043601360190023603364F
:101A220004361C0E0124F66E480E0220F76E000EDC
:101A32000320F86E0900F5CF00F00900F5CF01F0A0
:101A42000900F5CF02F00900F5CF03F0E1C304F07D
:101A5200E2C305F0E3C306F0E4C307F023EC01F0B0
:101A62002FD0E0C300F0000E016E026E036E00364E
:101A720000900136023603360036009001360236F7
:101A820003361C0E0024F66E480E0120F76E000E7F
:101A92000220F86E0900F5CF00F00900F5CF01F041
:101AA2000900F5CF02F00900F5CF03F0000E046E35
:101AB200000E056E000E066E7E0E076E23EC01F020
:021AC200120010
:081AC400067E31EC02F0120075
:101ACC000301E051390806E3300EE05D03E3010E3B
:081ADC00006E01D0006A120047
:101AE4008C928690E0C3E5F323EC02F08C82120022
:0E1AF400A8B202D00000FCD7B8C3A9FF1200B0
:101B02000301D86BD96BCC6BCD6BBAC300F0BBC3EE
:101B120001F0BCC302F0010EBA27000EBB23BC23A6
:101B220000C0F6FF01C0F7FF02C0F8FF0900F5CFC1
:101B320000F000C0C9F30052D8B48EEF1DF0C951B5
:101B4200250A0BE0B8C3E1FFB9C3E2FFC9C3E6FF50
:101B5200B84BB92BD84BD92BD8D7CA6BCB6BCC6B24
:101B6200CD6B23D0CC87010EBA27000EBB23BC233A
:101B720059D0CC81010EBA27000EBB23BC2352D010
:101B8200CC83010EBA27000EBB23BC234BD0CD87DA
:101B9200010EBA27000EBB23BC2344D0CC85010E14
:101BA200BA27000EBB23BC233DD0BAC3F6FFBBC38A
:101BB200F7FFBCC3F8FF0900F5CF01F001502D0A71
:101BC200D1E0BAC3F6FFBBC3F7FFBCC3F8FF0900FD
:101BD200F5CF01F00150200ACCE0BAC3F6FFBBC337
:101BE200F7FFBCC3F8FF0900F5CF01F001502B0A43
:101BF200C7E0BAC3F6FFBBC3F7FFBCC3F8FF0900D7
:101C0200F5CF01F00150230AC2E0BAC3F6FFBBC30D
:101C1200F7FFBCC3F8FF0900F5CF01F00150300A0D
:101C2200BDE001D09ED7CCA301D0CC91CCA701D0EE
:101C3200CC95BAC3F6FFBBC3F7FFBCC3F8FF0900DC
:101C4200F5CF00F0000E016E00C0E0F33EDF00525F
:101C520035E0CA6BCB6BCAC300F0CBC301F00A0EEE
:101C6200046E000E056ED6EC04F0BAC3F6FFBBC3D9
:101C7200F7FFBCC3F8FF0900F5CF02F002500024C1
:101C8200CA6F000E0120CB6F300ECA5F000ECB5B15
:101C9200010EBA27000EBB23BC23BAC3F6FFBBC397
:101CA200F7FFBCC3F8FF0900F5CF00F0000E016E8C
:101CB20000C0E0F30ADF0052CEE133D0BAC3F6FF30
:101CC200BBC3F7FFBCC3F8FF0900F5CF01F0015019
:101CD2002A0A27E1BDC3E9FFBEC3EAFFEECF00F047
:101CE200EECF01F000C0E9FF01C0EAFFEECFCAF378
:101CF200EECFCBF3BDC3E9FFBEC3EAFF020EEE2473
:101D0200006E000EEE20016EBDC3E1FFBEC3E2FF16
:101D120000C0E6FF01C0E6FF010EBA27000EBB239A
:101D2200BC23BAC3F6FFBBC3F7FFBCC3F8FF09006D
:101D3200F5CF01F001502E0A6FE1010EBA27000E15
:101D4200BB23BC23BAC3F6FFBBC3F7FFBCC3F8FF78
:101D52000900F5CF01F001502A0A28E1BDC3E9FFCD
:101D6200BEC3EAFFEECF00F0EECF01F000C0E9FF04
:101D720001C0EAFFEECFC7F3EECFC8F3BDC3E9FF60
:101D8200BEC3EAFF020EEE24006E000EEE20016ECC
:101D9200BDC3E1FFBEC3E2FF00C0E6FF01C0E6FF34
:101DA200010EBA27000EBB23BC2335D0C76BC86B0C
:101DB200BAC3F6FFBBC3F7FFBCC3F8FF0900F5CFF8
:101DC20000F0000E016E00C0E0F37FDE005223E05F
:101DD200C7C300F0C8C301F00A0E046E000E056E00
:101DE200D6EC04F0BAC3F6FFBBC3F7FFBCC3F8FFDF
:101DF2000900F5CF02F002500024C76F000E012047
:101E0200C86F300EC75F000EC85B010EBA27000E06
:101E1200BB23BC23CDD703D0C76BC86BCD89BAC354
:101E220000F0BBC301F0BCC302F0010EBA27000EE2
:101E3200BB23BC2300C0F6FF01C0F7FF02C0F8FFBE
:101E42000900F5CFC9F3F9D0D8C300F0D9C301F026
:101E520092EF1DF0CC89E3D7CD852ED1CC8BCD81ED
:101E62002BD1CD8329D1CC8D27D126D1CC8BCC8F30
:101E720023D1BDC3E9FFBEC3EAFFEECF00F0EECF30
:101E820001F000C0E9FF01C0EAFFEECFD4F3EECFCC
:101E9200D5F3BDC3E9FFBEC3EAFF020EEE24006E16
:101EA200000EEE20016EBDC3E1FFBEC3E2FF00C023
:101EB200E6FF01C0E6FF000ED51902E1000ED419BB
:101EC20004E15D0ED46F000ED56FD66BD76BD65181
:101ED200D425E96ED751D521EA6EEE520BE0010E00
:101EE200D625006E000ED721016E00C0D6F301C0C8
:101EF200D7F3EDD7C751C8110AE0D751C85D02E147
:101F0200D651C75D04E2C7C3D6F3C8C3D7F3CB51DA
:101F1200D75D02E1CA51D65D05E2D651CA5FD751FB
:101F2200CB5B02D0CA6BCB6BCCB716D0CAC300F066
:101F3200CBC301F0010ECA5F000ECB5B0050011053
:101F42000BE0B8C3E1FFB9C3E2FF200EE66EB84B67
:101F5200B92BD84BD92BEAD7D6C302F0D7C303F09B
:101F6200010ED65D006E000ED759016E00C0D6F389
:101F720001C0D7F30250031019E0D4C3E9FFD5C35F
:101F8200EAFFB8C3E1FFB9C3E2FFEECFE6FFB84B09
:101F9200B92B010ED425006E000ED521016E00C0B2
:101FA200D4F301C0D5F3D84BD92BD6D7CCA716D0B2
:101FB200CAC300F0CBC301F0010ECA5F000ECB5BB7
:101FC200005001100BE0B8C3E1FFB9C3E2FF200EDD
:101FD200E66EB84BB92BD84BD92BEAD796D5BDC3F1
:101FE200E9FFBEC3EAFFEECF00F0EECF01F000C082
:101FF200E9FF01C0EAFFEECFC9F3BDC3E9FFBEC3EB
:10200200EAFF020EEE24006E000EEE20016EBDC34A
:10201200E1FFBEC3E2FF00C0E6FF01C0E6FFC90E5A
:10202200D46F030ED56F010ED66F000ED76F62D735
:10203200C00ECC13000ECD133FD0C951000AD8B444
:1020420003D7C9516C0AD8B405D7C9514C0AD8B4C0
:1020520001D7C951660AD8B4FFD6C951450AD8B4C6
:10206200FDD6C951650AD8B4FAD6C951670AD8B49F
:10207200F8D6C9516F0AD8B4F6D6C951640AD8B491
:10208200F4D6C951690AD8B4F0D6C951700AD8B485
:10209200EDD6C951580AD8B4E9D6C951780AD8B48C
:1020A200E6D6C951730AD8B4E4D6C951630A97E097
:1020B200C951750ABDE0B3D7000ECC15006ECD51E3
:1020C200070B016E00500110D8B435EF19F0CDA9FD
:1020D20004D0060EC76F000EC86FBDC3E9FFBEC3B2
:1020E200EAFFEECF00F0EECF01F000C0E9FF01C041
:1020F200EAFFEECFCEF3EECFCFF3EECFD0F3EECFBB
:10210200D1F3BDC3E9FFBEC3EAFF040EEE24006EA5
:10211200000EEE20016EBDC3E1FFBEC3E2FF00C0B0
:10212200E6FF01C0E6FF046A056A066A076ACEC3D3
:1021320000F0CFC301F0D0C302F0D1C303F06FECC3
:1021420004F0010ED8B0000E006E005205E0D07F00
:10215200030ECC13000ECD13D26BD36BCEC300F0A3
:10216200CFC301F0D0C302F0D1C303F0046A056A01
:10217200066A076ABFEC0AF0000ED8A4010E006ED0
:102182000052D8B48AD0D1C300F0016A026A036A4D
:10219200FF0E0016000E01167E0E005E000E015AA2
:1021A20000C0D2F301C0D3F3010E005E000E015A4B
:1021B20000C0D2F301C0D3F3030E046E000E056E0D
:1021C200D6EC04F000C0D2F301C0D3F30A0E046EC1
:1021D200000E056E74EC0BF000C0D2F301C0D3F315
:1021E200800E0118026E800E025C02E1000E005C9D
:1021F20005E2010E0301D25F000ED35B0301D2514F
:102202000008E06F45EC07F0CEC304F0CFC305F041
:10221200D0C306F0D1C307F023EC01F000C0D4F321
:1022220001C0D5F302C0D6F303C0D7F3000E046E8B
:10223200000E056E000E066E7F0E076ED4C300F010
:10224200D5C301F0D6C302F0D7C303F06FEC04F09C
:10225200010ED8B0000E006E005205E0010ED25FF2
:10226200000ED35B1AD0000E046E000E056E200E17
:10227200066E820E076ED4C300F0D5C301F0D6C33A
:1022820002F0D7C303F06FEC04F0000ED8B0010ED9
:10229200006E005202E0D24BD32B800E006E800EF5
:1022A200D319005C02E1D251000803E3010EC96FA9
:1022B20002D0D2C3C9F3CDB118D0CDA315D0800EB0
:1022C200D319006E7F0E005C02E1FC0ED25D0BE3BF
:1022D200800ED319006E800EC819005C02E1C7514E
:1022E200D25D01E201D001D0F1D3C751C81106E09D
:1022F200CDA304D0010EC75F000EC85B000E006EB6
:10230200C851005C02E1C751080803E2080EC96F18
:1023120002D0C7C3C9F3CEC300F0CFC301F0D0C30C
:1023220002F0D1C303F0046A056A066A076ABFECC9
:102332000AF0000ED8A4010E006E0052D8B44BD1A0
:10234200D2C3E0F345EC07F000C004F001C005F091
:1023520002C006F003C007F0CEC300F0CFC301F005
:10236200D0C302F0D1C303F087EC06F000C0CEF375
:1023720001C0CFF302C0D0F303C0D1F30301C951AE
:102382000008E06F45EC07F000C004F001C005F062
:1023920002C006F003C007F0CEC300F0CFC301F0C5
:1023A200D0C302F0D1C303F087EC06F000C0DAF329
:1023B20001C0DBF302C0DCF303C0DDF3DAC3CEF30A
:1023C200DBC3CFF3DCC3D0F3DDC3D1F3DAC300F058
:1023D200DBC301F0DCC302F0DDC303F023EC0AF03F
:1023E20074EC06F000C004F001C005F002C006F073
:1023F20003C007F0DAC300F0DBC301F0DCC302F074
:10240200DDC303F062EC0DF0000E046E000E056EEB
:10241200000E066E7E0E076E6FEC04F0000ED8B052
:10242200010E006E00521AE0CEC300F0CFC301F0DD
:10243200D0C302F0D1C303F0000E046E000E056E8D
:10244200000E066E7E0E076E31EC02F000C0CEF377
:1024520001C0CFF302C0D0F303C0D1F3CEC300F06A
:10246200CFC301F0D0C302F0D1C303F023EC0AF0D2
:102472000301C951010F096E0A6A000E0A2209C03E
:1024820004F00AC005F0000E0ABEFF0E066E076ECB
:1024920004360490053606360736043604900536AF
:1024A20006360736B40E0424F66E480E0520F76E83
:1024B200000E0620F86E0900F5CF05F00900F5CFF1
:1024C20006F00900F5CF07F00900F5CF08F0085033
:1024D200035C08E10750025C05E10650015C02E181
:1024E2000550005C1EE30301CEC300F0CFC301F030
:1024F200D0C302F0D1C303F0CD0E046ECC0E056E34
:102502004C0E066E7B0E076E23EC01F000C0CEF37C
:1025120001C0CFF302C0D0F303C0D1F3D24BD32B0F
:102522005AD0CEC300F0CFC301F0D0C302F0D1C362
:1025320003F023EC0AF0C9C304F0000E056E066E28
:10254200076E0436049005360636073604360490C4
:10255200053606360736B40E0424F66E480E0520FC
:10256200F76E000E0620F86E0900F5CF05F009009F
:10257200F5CF06F00900F5CF07F00900F5CF08F016
:102582000850035C08E10750025C05E10650015C5B
:1025920002E10550005C1FE20301CEC300F0CFC38D
:1025A20001F0D0C302F0D1C303F0000E046E000E9E
:1025B200056E200E066E820E076E23EC01F000C03F
:1025C200CEF301C0CFF302C0D0F303C0D1F3010EAA
:1025D200D25F000ED35B0301CDA393D0CDB791D0D0
:1025E200800E000A006E800EC819005C02E1C7511D
:1025F2000A0804E20A0EC76F000EC86FCEC300F0CD
:10260200CFC301F0D0C302F0D1C303F023EC0AF030
:1026120000C0D4F301C0D5F302C0D6F303C0D7F390
:10262200D451D511D611D71142E00A0E046E000E14
:10263200056E066E076ED4C300F0D5C301F0D6C393
:1026420002F0D7C303F0FEEC04F008C000F009C0AA
:1026520001F00AC002F00BC003F0000E046E031872
:1026620008E10450021805E10450011802E100508B
:10267200000A1DE1010EC75F000EC85B0A0E046E60
:10268200000E056E066E076ED4C300F0D5C301F0CE
:10269200D6C302F0D7C303F0FEEC04F000C0D4F3BB
:1026A20001C0D5F302C0D6F303C0D7F3B9D7800E69
:1026B200C819006E800E005C02E1C951C75D21E2BB
:1026C200C751C95DE06F45EC07F000C004F001C0DE
:1026D20005F002C006F003C007F0CEC300F0CFC37E
:1026E20001F0D0C302F0D1C303F087EC06F000C0C2
:1026F200CEF301C0CFF302C0D0F303C0D1F3C7C3FE
:10270200C9F3050E0301C725006E000EC821016E34
:102712000050CA5F0150CB5BC751C81103E1CDB76E
:1027220001D004D0010ECA5F000ECB5B030ECC15A4
:10273200006ECDC301F0000E01160050011004E03E
:10274200010ECA5F000ECB5BCCA539D0CCA312D050
:10275200CCA103D02D0EBF6F02D02B0EBF6FB8C31A
:10276200E1FFB9C3E2FFBFC3E6FFB84BB92BD84BB9
:10277200D92B0CD0CCA10AD0B8C3E1FFB9C3E2FF78
:10278200200EE66EB84BB92BD84BD92B800E006EBB
:10279200800ECB19005C02E1CA5100080FE2B8C3F7
:1027A200E1FFB9C3E2FF300EE66EB84BB92BD84B4E
:1027B200D92B010ECA5F000ECB5BE8D73AD0CCB75B
:1027C20018D0800E006E800ECB19005C02E1CA5157
:1027D20000080FE2B8C3E1FFB9C3E2FF200EE66EC4
:1027E200B84BB92BD84BD92B010ECA5F000ECB5B6D
:1027F200E8D7CCA312D0CCA103D02D0EC06F02D04B
:102802002B0EC06FB8C3E1FFB9C3E2FFC0C3E6FF3E
:10281200B84BB92BD84BD92B0CD0CCA10AD0B8C30A
:10282200E1FFB9C3E2FF200EE66EB84BB92BD84BDD
:10283200D92BCEC300F0CFC301F0D0C302F0D1C375
:1028420003F023EC0AF000C0D4F301C0D5F302C0B8
:10285200D6F303C0D7F3C9C300F0000E016E026EB7
:10286200036E0036009001360236033600360090C1
:10287200013602360336B40E0024F66E480E0120ED
:10288200F76E000E0220F86E0900F5CF04F0090081
:10289200F5CF05F00900F5CF06F00900F5CF07F0F6
:1028A200D4C300F0D5C301F0D6C302F0D7C303F0FE
:1028B200FEEC04F0300E0026B8C3E1FFB9C3E2FF1C
:1028C20000C0E6FFB84BB92BD84BD92BC751C81162
:1028D20003E1CDB701D06FD0B8C3E1FFB9C3E2FFC6
:1028E2002E0EE66EB84BB92BD84BD92BC951C75F08
:1028F200000EC85BC9534DE0C907C9C300F0000E02
:10290200016E026E036E0036009001360236033607
:1029120000360090013602360336B40E0024F66EFD
:10292200480E0120F76E000E0220F86E0900F5CF66
:1029320004F00900F5CF05F00900F5CF06F0090013
:10294200F5CF07F0D4C300F0D5C301F0D6C302F02F
:10295200D7C303F0FEEC04F00A0E046E000E056EFF
:10296200066E076EFEEC04F008C000F009C001F02C
:102972000AC002F00BC003F0300E0026B8C3E1FF1C
:10298200B9C3E2FF00C0E6FFB84BB92BD84BD92B35
:10299200B1D7C751C8110FE0B8C3E1FFB9C3E2FF15
:1029A200300EE66EB84BB92BD84BD92B010EC75F50
:1029B200000EC85BEED7CCAB0BD0B8C3E1FFB9C3F6
:1029C200E2FF450EE66EB84BB92BD84BD92B0AD095
:1029D200B8C3E1FFB9C3E2FF650EE66EB84BB92B8F
:1029E200D84BD92B800ED319006E800E005C02E109
:1029F200000ED25D11E2D2510008D26FD351000E07
:102A0200D357B8C3E1FFB9C3E2FF2D0EE66EB84B50
:102A1200B92BD84BD92B0AD0B8C3E1FFB9C3E2FF17
:102A22002B0EE66EB84BB92BD84BD92B0A0E046E7F
:102A3200000E056ED2C300F0D3C301F074EC0BF0AC
:102A4200300E0026B8C3E1FFB9C3E2FF00C0E6FFC3
:102A52000301B84BB92BD84BD92B0A0E046E000ECA
:102A6200056ED2C300F0D3C301F074EC0BF008C0C2
:102A720000F009C001F0300E0026B8C3E1FFB9C36F
:102A8200E2FF00C0E6FF0301B84BB92BD84BD92BAC
:102A9200CCA71AD0800E006E800ECB19005C02E12A
:102AA200CA51000811E2B8C3E1FFB9C3E2FF200E28
:102AB200E66EB84BB92BD84BD92B010ECA5F000E6C
:102AC200CB5BCA51CB11EFE186EF0DF0CDA3F3D072
:102AD200800ED319006E800E005C02E1000ED25D02
:102AE2000AE2010ED25D006E000ED359016E005053
:102AF200C75F0150C85BCEC300F0CFC301F0D0C3A3
:102B020002F0D1C303F023EC0AF000C0D4F301C0F9
:102B1200D5F302C0D6F303C0D7F3010EC96FC95172
:102B22000A0A34E0C9C300F0000E016E026E036EA1
:102B32000036009001360236033600360090013628
:102B420002360336B40E0024F66E480E0120F76EEC
:102B5200000E0220F86E0900F5CF01F00900F5CF52
:102B620002F00900F5CF03F00900F5CF04F004509C
:102B7200D75D08E10350D65D05E10250D55D02E163
:102B82000150D45D01E202D0C92BC9D7C951C75D3A
:102B9200DE6F000EC859DF6FDEC3C7F3DFC3C8F3B1
:102BA200D4C300F0D5C301F0D6C302F0D7C303F0FB
:102BB20074EC06F000C004F001C005F002C006F09B
:102BC20003C007F0CEC300F0CFC301F0D0C302F0C0
:102BD200D1C303F062EC0DF000C0DAF301C0DBF305
:102BE20002C0DCF303C0DDF3DEC3E0F345EC07F023
:102BF200DAC304F0DBC305F0DCC306F0DDC307F083
:102C020023EC01F0000E046E000E056E000E066E3F
:102C12007E0E076E31EC02F023EC0AF000C0D4F312
:102C220001C0D5F302C0D6F303C0D7F3C751C81110
:102C320042E00A0E046E000E056E066E076ED4C3E5
:102C420000F0D5C301F0D6C302F0D7C303F0FEEC07
:102C520004F008C000F009C001F00AC002F00BC085
:102C620003F0000E046E031808E10450021805E197
:102C72000450011802E10050000A1DE10A0E046E20
:102C8200000E056E066E076ED4C300F0D5C301F0C8
:102C9200D6C302F0D7C303F0FEEC04F000C0D4F3B5
:102CA20001C0D5F302C0D6F303C0D7F3010EC75F4C
:102CB200000EC85BBBD7800E006E800EC819005C88
:102CC20002E1C7510C0816E3C7C3E0F3E1EC0BF0D5
:102CD200CEC304F0CFC305F0D0C306F0D1C307F0D2
:102CE20031EC02F000C0CEF301C0CFF302C0D0F34A
:102CF20003C0D1F3CEC300F0CFC301F0D0C302F0C2
:102D0200D1C303F0046A056A066A076ABFEC0AF0D7
:102D1200000ED8A4010E006E0052D8B477D0CEC3F4
:102D220000F0CFC301F0D0C302F0D1C303F023EC13
:102D32000AF0000E046E031808E10450021805E1BF
:102D42000450011802E10050000A60E1800E006E9A
:102D5200800ED319005C02E1D251010857E2D2C3BE
:102D6200E0F345EC07F000C004F001C005F002C03A
:102D720006F003C007F0CEC300F0CFC301F0D0C30A
:102D820002F0D1C303F087EC06F05F0E046E700E02
:102D9200056E090E066E810E076E6FEC04F0010ED1
:102DA200D8B0000E006E005206E0090E0301D25F99
:102DB200000ED35B05D00301080ED25F000ED35B79
:102DC200D2C3E0F345EC07F000C004F001C005F007
:102DD20002C006F003C007F0CEC300F0CFC301F07B
:102DE200D0C302F0D1C303F087EC06F023EC0AF063
:102DF20000C0D4F301C0D5F302C0D6F303C0D7F3A9
:102E02000301CE6BCF6BD06BD16B38D0CEC300F049
:102E1200CFC301F0D0C302F0D1C303F023EC0AF018
:102E220000C0D4F301C0D5F302C0D6F303C0D7F378
:102E3200D4C300F0D5C301F0D6C302F0D7C303F068
:102E420074EC06F000C004F001C005F002C006F008
:102E520003C007F0CEC300F0CFC301F0D0C302F02D
:102E6200D1C303F062EC0DF000C0CEF301C0CFF38A
:102E720002C0D0F303C0D1F3D26BD36B010EC96F82
:102E8200C9510A0A34E0C9C300F0000E016E026E95
:102E9200036E00360090013602360336003600908B
:102EA200013602360336B40E0024F66E480E0120B7
:102EB200F76E000E0220F86E0900F5CF01F009004E
:102EC200F5CF02F00900F5CF03F00900F5CF04F0C9
:102ED2000450D75D08E10350D65D05E10250D55D8F
:102EE20002E10150D45D01E202D0C92BC9D7C95118
:102EF200C725006E000EC821016ED2510026D351A3
:102F020001220050CA5F0150CB5BCDB704D0C7513C
:102F1200C81101E104D0010ECA5F000ECB5B030EA3
:102F2200CC15006ECDC301F0000E01160050011049
:102F320004E0010ECA5F000ECB5BCCA539D0CCA356
:102F420012D0CCA103D02D0EC16F02D02B0EC16FB7
:102F5200B8C3E1FFB9C3E2FFC1C3E6FFB84BB92B67
:102F6200D84BD92B0CD0CCA10AD0B8C3E1FFB9C33E
:102F7200E2FF200EE66EB84BB92BD84BD92B800E50
:102F8200006E800ECB19005C02E1CA5100080FE20C
:102F9200B8C3E1FFB9C3E2FF300EE66EB84BB92BFE
:102FA200D84BD92B010ECA5F000ECB5BE8D73AD0C3
:102FB200CCB718D0800E006E800ECB19005C02E1F7
:102FC200CA5100080FE2B8C3E1FFB9C3E2FF200E05
:102FD200E66EB84BB92BD84BD92B010ECA5F000E47
:102FE200CB5BE8D7CCA312D0CCA103D02D0EC26FFD
:102FF20002D02B0EC26FB8C3E1FFB9C3E2FFC2C356
:10300200E6FFB84BB92BD84BD92B0CD0CCA10AD0A8
:10301200B8C3E1FFB9C3E2FF200EE66EB84BB92B8D
:10302200D84BD92BC9C300F0C90700524CE0C9C321
:1030320000F0000E016E026E036E00360090013643
:103042000236033600360090013602360336B40EDD
:103052000024F66E480E0120F76E000E0220F86E74
:103062000900F5CF04F00900F5CF05F00900F5CF0E
:1030720006F00900F5CF07F0D4C300F0D5C301F084
:10308200D6C302F0D7C303F0FEEC04F00A0E046EBE
:10309200000E056E066E076EFEEC04F008C000F02E
:1030A20009C001F00AC002F00BC003F0300E002686
:1030B200B8C3E1FFB9C3E2FF00C0E6FFB84BB92BCA
:1030C200D84BD92BAFD7800E006E800ED319005C7F
:1030D20002E1D25100080FE2B8C3E1FFB9C3E2FF37
:1030E200300EE66EB84BB92BD84BD92B010ED25FFE
:1030F200000ED35BE8D7800E000A006E800EC8195E
:10310200005C02E1C751080803E2080EC96F02D051
:10311200C7C3C9F3C951C75F000EC85BC95303E1F6
:10312200CDB701D00AD0B8C3E1FFB9C3E2FF2E0E7A
:10313200E66EB84BB92BD84BD92BC9C3E0F345EC9B
:1031420007F0CEC304F0CFC305F0D0C306F0D1C35D
:1031520007F023EC01F0DBEC0AF000C0D4F301C06D
:10316200D5F302C0D6F303C0D7F3C9534DE0C90764
:10317200C9C300F0000E016E026E036E00360090AD
:103182000136023603360036009001360236033627
:10319200B40E0024F66E480E0120F76E000E0220D7
:1031A200F86E0900F5CF04F00900F5CF05F009002B
:1031B200F5CF06F00900F5CF07F0D4C300F0D5C370
:1031C20001F0D6C302F0D7C303F0FEEC04F00A0EFE
:1031D200046E000E056E066E076EFEEC04F008C06B
:1031E20000F009C001F00AC002F00BC003F0300E7B
:1031F2000026B8C3E1FFB9C3E2FF00C0E6FFB84B47
:10320200B92BD84BD92BB1D7C751C8110FE0B8C3CE
:10321200E1FFB9C3E2FF300EE66EB84BB92BD84BD3
:10322200D92B010EC75F000EC85BEED7CCA71AD010
:10323200800E006E800ECB19005C02E1CA510008BC
:1032420011E2B8C3E1FFB9C3E2FF200EE66EB84B4C
:10325200B92BD84BD92B010ECA5F000ECB5BCA51DA
:10326200CB11EFE186EF0DF0C00ECC15016ECDC390
:1032720002F0000E0216000E021802E1000E011802
:10328200D8A480D0CCA927D0BDC3E9FFBEC3EAFF32
:10329200EECF00F0EECF01F000C0E9FF01C0EAFF7F
:1032A200EECFD4F3EECFD5F3EECFD6F3EECFD7F306
:1032B200BDC3E9FFBEC3EAFF040EEE24006E000E9A
:1032C200EE20016EBDC3E1FFBEC3E2FF00C0E6FF18
:1032D20001C0E6FF2FD0BDC3E9FFBEC3EAFFEECFB8
:1032E20000F0EECF01F000C0E9FF01C0EAFFEECF2F
:1032F20000F0EECF01F0000E01BEFF0E026E036E73
:1033020000C0D4F301C0D5F302C0D6F303C0D7F393
:10331200BDC3E9FFBEC3EAFF020EEE24006E000E3B
:10332200EE20016EBDC3E1FFBEC3E2FF00C0E6FFB7
:1033320001C0E6FF800ED719006E800E005C08E126
:10334200000ED65D05E1000ED55D02E1000ED45DF2
:1033520018E2030ECC13000ECD13006A016A026A52
:10336200036AD451005ED551015AD651025AD7513F
:10337200035A00C0D4F301C0D5F302C0D6F303C090
:10338200D7F34ED0CCA927D0BDC3E9FFBEC3EAFF15
:10339200EECF00F0EECF01F000C0E9FF01C0EAFF7E
:1033A200EECFD4F3EECFD5F3EECFD6F3EECFD7F305
:1033B200BDC3E9FFBEC3EAFF040EEE24006E000E99
:1033C200EE20016EBDC3E1FFBEC3E2FF00C0E6FF17
:1033D20001C0E6FF25D0BDC3E9FFBEC3EAFFEECFC1
:1033E20000F0EECF01F000C0E9FF01C0EAFFEECF2E
:1033F200D4F3EECFD5F3000ED66FD76FBDC3E9FF7E
:10340200BEC3EAFF020EEE24006E000EEE20016E35
:10341200BDC3E1FFBEC3E2FF00C0E6FF01C0E6FF9D
:10342200000EC81902E1000EC7190FE1000E006E6E
:10343200D71908E10050D61905E10050D51902E16B
:10344200D451000A02E1C74BC82BC00ECC15006E46
:1034520000C005F0AED0010EC96FC9510A0A34E0AE
:10346200C9C300F0000E016E026E036E00360090BA
:103472000136023603360036009001360236033634
:10348200B40E0024F66E480E0120F76E000E0220E4
:10349200F86E0900F5CF01F00900F5CF02F009003E
:1034A200F5CF03F00900F5CF04F00450D75D08E131
:1034B2000350D65D05E10250D55D02E10150D45DB5
:1034C20001E202D0C92BC9D782D0010EC96FC951FE
:1034D200080A34E0C9C300F0000E016E026E036EEA
:1034E200003600900136023603360036009001366F
:1034F20002360336DC0E0024F66E480E0120F76E0B
:10350200000E0220F86E0900F5CF01F00900F5CF98
:1035120002F00900F5CF03F00900F5CF04F00450E2
:10352200D75D08E10350D65D05E10250D55D02E1A9
:103532000150D45D01E202D0C92BC9D748D0010E97
:10354200C96FC9510C0A34E0C9C300F0000E016E04
:10355200026E036E003600900136023603360036E4
:103562000090013602360336840E0024F66E480EB1
:103572000120F76E000E0220F86E0900F5CF01F06F
:103582000900F5CF02F00900F5CF03F00900F5CFED
:1035920004F00450D75D08E10350D65D05E1025006
:1035A200D55D02E10150D45D01E202D0C92BC9D739
:1035B2000ED00550000AD8B44ED70550C00AD8B470
:1035C2004AD70550800A81E00550400AB8E0800ED3
:1035D200006E800EC819005C02E1C751C95D03E2AA
:1035E200C7C3C9F30DD0800EC819006E800E005CEF
:1035F20002E1C951C75D04E2C9C3C7F3000EC86F37
:10360200CA51CB110EE0030ECC15006ECDC301F0F2
:10361200000E01160050011004E0010ECA5F000EF8
:10362200CB5B800EC819006E800ECB19005C02E1E4
:10363200CA51C75D05E2C751CA5FC851CB5B02D010
:10364200CA6BCB6BC40ECC15016ECD51080B026E4A
:103652000250080A02E1400E011808E1CA51CB11DA
:1036620004E0010ECA5F000ECB5B1CD0C00ECC156D
:10367200016ECD51080B026E0250080A02E1800E63
:10368200011810E1800E006E800ECB19005C02E181
:10369200CA51020805E2020ECA5F000ECB5B02D0DD
:1036A200CA6BCB6BCCA55DD0CCA312D0CCA103D07E
:1036B2002D0EC36F02D02B0EC36FB8C3E1FFB9C387
:1036C200E2FFC3C3E6FFB84BB92BD84BD92B34D09A
:1036D200CCA10BD0B8C3E1FFB9C3E2FF200EE66E66
:1036E200B84BB92BD84BD92B27D0C00ECC15016EB5
:1036F200CD51080B026E0250080A02E1800E011839
:103702001BE1B8C3E1FFB9C3E2FF300EE66EB84B6E
:10371200B92BD84BD92BCCAB03D0580EC46F02D0E7
:10372200780EC46FB8C3E1FFB9C3E2FFC4C3E6FFBA
:10373200B84BB92BD84BD92BCA51CB1111E0B8C316
:10374200E1FFB9C3E2FF300EE66EB84BB92BD84B9E
:10375200D92B010ECA5F000ECB5BCA51CB11EFE130
:1037620074D0CA51CB1113E0CCB711D0B8C3E1FF6A
:10377200B9C3E2FF200EE66EB84BB92BD84BD92B5A
:10378200010ECA5F000ECB5BCA51CB11EFE1CCA395
:1037920012D0CCA103D02D0EC56F02D02B0EC56F57
:1037A200B8C3E1FFB9C3E2FFC5C3E6FFB84BB92B0B
:1037B200D84BD92B0CD0CCA10AD0B8C3E1FFB9C3E6
:1037C200E2FF200EE66EB84BB92BD84BD92BC00EB8
:1037D200CC15016ECD51080B026E0250080A02E1AF
:1037E200400E01180BE1B8C3E1FFB9C3E2FF300E8E
:1037F200E66EB84BB92BD84BD92B27D0C00ECC15BF
:10380200016ECD51080B026E0250080A02E1800ED1
:1038120001181BE1B8C3E1FFB9C3E2FF300EE66E47
:10382200B84BB92BD84BD92BCCAB03D0580EC66FA3
:1038320002D0780EC66FB8C3E1FFB9C3E2FFC6C3B8
:10384200E6FFB84BB92BD84BD92B800E006E800EF9
:10385200C819005C02E1C751C95D0BE2B8C3E1FFC0
:10386200B9C3E2FF300EE66EB84BB92BD84BD92B59
:10387200ECD7C7C300F0C8C301F0010EC75F000E4A
:10388200C85B00500110D8B42AD1C00ECC15006E0E
:1038920000C0DAF30AD1C7C300F0C8C301F0000EBA
:1038A200C8BFFF0E026E036E00360090013602366C
:1038B200033600360090013602360336B40E002479
:1038C200F66E480E0120F76E000E0220F86E090017
:1038D200F5CF04F00900F5CF05F00900F5CF06F0A9
:1038E2000900F5CF07F0D4C300F0D5C301F0D6C369
:1038F20002F0D7C303F0FEEC04F00A0E046E000ED1
:10390200056E066E076EFEEC04F008C000F009C0FA
:1039120001F00AC002F00BC003F0300E0024C96FA0
:10392200D3D0CCAB45D0C7C300F0C8C301F0000E62
:10393200C8BFFF0E026E036E0036009001360236DB
:10394200033600360090013602360336DC0E0024C0
:10395200F66E480E0120F76E000E0220F86E090086
:10396200F5CF04F00900F5CF05F00900F5CF06F018
:103972000900F5CF07F0D4C300F0D5C301F0D6C3D8
:1039820002F0D7C303F0FEEC04F00F0E0016000E97
:103992000116021603162A0E0024F66E490E0120A5
:1039A200F76E000E0220F86E0900F5CFC9F344D07D
:1039B200C7C300F0C8C301F0000EC8BFFF0E026EFD
:1039C200036E003600900136023603360036009050
:1039D200013602360336DC0E0024F66E480E012054
:1039E200F76E000E0220F86E0900F5CF04F0090010
:1039F200F5CF05F00900F5CF06F00900F5CF07F085
:103A0200D4C300F0D5C301F0D6C302F0D7C303F08C
:103A1200FEEC04F00F0E0016000E0116021603163D
:103A22003B0E0024F66E490E0120F76E000E0220B6
:103A3200F86E0900F5CFC9F347D0C7C300F0C8C379
:103A420001F0000EC8BFFF0E026E036E003600903A
:103A5200013602360336003600900136023603364E
:103A6200840E0024F66E480E0120F76E000E02202E
:103A7200F86E0900F5CF04F00900F5CF05F0090052
:103A8200F5CF06F00900F5CF07F0D4C300F0D5C397
:103A920001F0D6C302F0D7C303F0FEEC04F0070E28
:103AA2000014C96F300EC9270FD0DA51000AD8B4FA
:103AB200F2D6DA51C00AD8B4EED6DA51800AD8B4B6
:103AC20030D7DA51400AB9E0B8C3E1FFB9C3E2FF27
:103AD200C9C3E6FFB84BB92BD84BD92BCAD6CCA752
:103AE2001AD0800E006E800ECB19005C02E1CA5122
:103AF200000811E2B8C3E1FFB9C3E2FF200EE66E8F
:103B0200B84BB92BD84BD92B010ECA5F000ECB5B39
:103B1200CA51CB11EFE186EF0DF0D8C300F0D9C343
:043B220001F012009C
:103B2600B00E0301B811006E00C0B8F300C0E0F398
:063B360072EC0DF012001C
:103B3C00200E0301B825026E02C0B8F302C000F0DB
:103B4C000032009E0032009E0032009E0032009E29
:103B5C00100E0010E06F72EC0DF00F0E0301B81593
:083B6C00E06F72EC0DF0120095
:103B74000301BE6BBF6BBC5344E0BC51FF0AD8A425
:103B8400BC07D6EC0AF00050000A01E1FAD7D8ECE1
:103B94000BF000C0BDF30301BE51B825E16E000E69
:103BA400B921E26E00C0E6FFBE2BBF51BA25E96E13
:103BB400000EBB21EA6EEE50BD1902E1BF2B09D005
:103BC400BF6BBAC3E9FFBBC3EAFFEE50BD19D8B45B
:103BD400BF2BBF51BA25E96E000EBB21EA6EEE5031
:103BE400000A0EE1BF51BE5D006E016A000E015A6B
:103BF4000050B825E16E0150B921E26EE66A06D0A4
:0E3C0400BAD7B8C3E1FFB9C3E2FFE66A120007
:103C12008C928680B8C3E5F323EC02F08C8212000A
:103C2200B9C200F00201B907005228E0B5C2E9FFAB
:103C3200B6C2EAFFEE50000A0CE0B5C2E9FFB6C216
:103C4200EAFFB7C2D9FFB8C2DAFFEE50DE1801E1CF
:103C52000FD0B5C2E9FFB6C2EAFFB7C2D9FFB8C2F8
:103C6200DAFFDE50EE5C006E016A000E015A08D0E7
:103C72000201B54BB62BB74BB82BD2D7006A016AFB
:023C820012002E
:103C8400F40E0101D16F1A0ED26FB80ED36F030E6A
:103C9400D46FB00EDD6F170EDE6F000EDF6F000EF7
:103CA400E06FAC0ED96F150EDA6F000EDB6F000EED
:103CB400DC6FFF0ED56FFF0ED66F000ED76F000EB0
:103CC400D86FA88A900E9C6E98849892A4AA03D068
:083CD400AACF00F0FBD712009B
:103CDC00FF0E0101CD6FFF0ECE6FFF0ECF6FFF0EEB
:103CEC00D06F460EC96F040ECA6FE50ECB6F030E74
:103CFC00CC6F949A94969488C66A400EC76EC68A06
:023D0C001200A3
:103D0E00B5C2E9FFB6C2EAFFEE500201B71905E1EE
:103D1E00B5C200F0B6C201F010D0B5C200F0B6C206
:103D2E0001F0B54BB62B00C0E9FF01C0EAFFEECFA4
:0C3D3E0000F00052E5E1006A016A12008A
:103D4A00200E0201B55D006E016A000E015A050ED1
:103D5A00046E000E056ED6EC04F0D00E0024BE6F81
:103D6A00450E0120BF6F000EC06F000E01BEFF0E90
:103D7A00C023BA6B060EBA5DD8B076D0BEC2F6FFC3
:103D8A00BFC2F7FFC0C2F8FF0900F5CF01F001C0BA
:103D9A00BDF2BD37BD91010EBE27000EBF23C02361
:103DAA00BA51050AD8B4BD6BBB6B080EBB5D2DE2D8
:103DBA0085C000F0005007E0B637B691B737B8377C
:103DCA00B937FF0FF8D7BDAF1CD000018505006ECB
:103DDA00016A000E015A4C0E0024F66E490E0120AB
:103DEA00F76E000EF86E000E01BEFF0EF8220900F3
:103DFA00F5CF00F000500201B613000EB713B81346
:103E0A00B913BD37BD91BB2BD0D7BB6B0001855110
:103E1A000201BB5D27E2BB51AA250301B86F7EDE12
:103E2A000201BA5100018403F3CF00F000500201ED
:103E3A00A9250301B86F7DDE0201BC6B0001845124
:103E4A000201BC5D06E2B6C2B8F3DEDE0201BC2B9B
:103E5A00F5D7B7C2B6F2B8C2B7F2B9C2B8F2B96BFF
:103E6A00BB2BD4D7BA2B86D7060E00018403F3CF17
:103E7A0000F000500201A925016E01C0A9F2600EEE
:103E8A00015C20E3A96B0301B86B53DE0001855185
:103E9A000201AA25036E03C0AAF200018551050892
:103EAA00016E026A000E025A800E006E800E02181F
:103EBA00005C02E10150035C02E30201AA6BAAC2A0
:063ECA00B8F32CDE12002B
:103ED0008C98D6EC0AF00050010A0DE1B90E0301EE
:103EE000B86F020EB96FB5C2BAF3B6C2BBF3B7C2B0
:0A3EF000BCF340DE01D0EDD7120054
:103EFA000201B86BB5C2E9FFB6C2EAFFEECFB7F26C
:103F0A00B751000A0FE0B7C2B8F37AEC0DF002011C
:103F1A00B82BB851B525E96E000EB621EA6EEECF80
:063F2A00B7F2EED7120011
:103F3000B5C202F0B6C203F002C000F003C001F047
:103F4000024A032A00C0E9FF01C0EAFFEE5201E085
:103F5000F3D70201B551025C006EB6510358016EF1
:0A3F6000010E005E000E015A12006F
:103F6A00BA0E0201BD6F020EBE6FB5C2B8F3B6C279
:103F7A00B9F3B7C2BAF3B8C2BBF3B9C2BCF3BD0E48
:103F8A000301BD6F020EBE6F81EC0DF000C0BBF2E3
:103F9A0001C0BCF200500201B525E16E0150B62104
:0E3FAA00E26EE66ABBC200F0BCC201F012007B
:103FB8008C903D0E0B6EE10E0C6E3F0E0D6E0D2EAD
:103FC800FED70C2EFCD70B2EFAD7000000008C80F1
:103FD8003D0E0B6EE10E0C6E3F0E0D6E0D2EFED7D4
:103FE8000C2EFCD70B2EFAD700000000AE0E0301F2
:103FF800E06F72EC0DF0D50E0301E06F72EC0DF07E
:10400800800E0301E06F72EC0DF0A80E0301E06F63
:1040180072EC0DF0270E0301E06F72EC0DF0A10EAB
:104028000301E06F72EC0DF0C80E0301E06F72EC53
:104038000DF0D30E0301E06F72EC0DF00301E06B9D
:1040480072EC0DF08D0E0301E06F72EC0DF0140EA2
:104058000301E06F72EC0DF0400E0301E06F72ECAB
:104068000DF0DA0E0301E06F72EC0DF0120E030191
:10407800E06F72EC0DF0810E0301E06F72EC0DF051
:10408800AF0E0301E06F72EC0DF0D90E0301E06F83
:1040980072EC0DF0250E0301E06F72EC0DF0DB0EF3
:1040A8000301E06F72EC0DF0200E0301E06F72EC7B
:1040B8000DF0A40E0301E06F72EC0DF0A60E0301E3
:1040C800E06F72EC0DF0AF0E0301E06F72EC0DF0D3
:0240D8001200D4
:1040DA000900F5CFE6FF0006FBE10106F9E112004F
:1040EA00959095929890F5DD1F0E0B6E710E0C6EE1
:1040FA001E0E0D6E0D2EFED70C2EFCD70B2EFAD7E8
:10410A0000007C86040E7D6EE10EAB6EA884B5DDE0
:10411A000D0E0B6E2D0E0C6ED70E0D6E0D2EFED7DC
:0E412A000C2EFCD70B2EFAD70000000012005E
:104138000201AD6B050EAD5D13E2ADC2B8F3EFDC65
:104148000301B86BF7DC0201AE6B600EAE5D06E2F0
:104158000301B86B5ADD0201AE2BF7D7AD2BEAD7B6
:10416800A96BAA6B0301B86BDADC0301B86BE2DC5C
:02417800120033
:10417A00000E0201AE1902E1000EAD1934E0ADC223
:10418A00E9FFAEC2EAFFEE522EE0AFC2B5F2B0C20C
:10419A00B6F2C9DE00C0B9F2ADC2B5F2AEC2B6F22D
:1041AA00AFC2B7F2B0C2B8F237DD000E011802E1B1
:1041BA00000E001805E1ADC200F0AEC201F015D044
:1041CA00010E0201AD25B56F000EAE21B66FAFC26A
:1041DA00E9FFB0C2EAFFEECFB7F294DD00C0ADF25C
:0C41EA0001C0AEF2C5D7006A016A1200E5
:1041F600640E0201B56F000EB66F7CDE7A0EB56FE7
:10420600000EB66FFF0EB76F000EB86F5EDEE10EE2
:104216000201B56F010EB66F170EB76F490EB86F74
:10422600000EB96F9FDEE10EB56F010EB66F62DE4E
:10423600810EB56F000EB66FFF0EB76F000EB86F2A
:1042460044DEE10E0201B56F010EB66FFC0EB76FCC
:10425600480EB86F000EB96F85DEE10EB56F010E20
:10426600B66F48DE7D0EB56F000EB66FFF0EB76FE8
:08427600000EB86F2ADE1200F1
:10427E00ADC2E9FFAEC2EAFFEECFAFF2000E020111
:10428E00B06F000EB06F000EB01902E1200EAF1924
:10429E0007E0000EB01902E1090EAF1901E003D0DC
:1042AE00AD4BAE2BE5D7B16BB26BB36BB46B000EEF
:1042BE00B01902E12D0EAF1905E1B34BB42BAD4B86
:1042CE00AE2B08D0000EB01902E12B0EAF1902E191
:1042DE00AD4BAE2BADC2E9FFAEC2EAFFEECFAFF2F1
:1042EE00000EB06F000EB06FAFC2E0F366EC0DF0D3
:1042FE0000521AE0B1C200F0B2C201F00A0E046E12
:10430E00000E056ED6EC04F0300E0201AF5D026EAB
:10431E00000EB059036E02500024B16F03500120FD
:10432E00B26FAD4BAE2BD6D70201B351B41108E02C
:10433E00B1510008006EB2C201F0000E015604D059
:0A434E00B1C200F0B2C201F012008B
:10435800AEC2AAF2ADC2A9F2AEC2B8F393EC1DF098
:10436800A9C2B8F39EEC1DF0AFC2E9FFB0C2EAFFE4
:10437800EE520CE0AFC2E9FFB0C2EAFFEECFB5F2F1
:0E438800E0DC0201AF4BB02BA92BEED71200E8
:10439600ADC202F0AEC203F0B0C200F0B1C201F08D
:1043A600010E0201B05F000EB15B0050011009E082
:1043B60002C0E1FF03C0E2FFAFC2E6FF024A032AE2
:0C43C600EBD7ADC200F0AEC201F0120057
:1043D200A8EC24F089DE1F0E0B6E710E0C6E1E0E01
:1043E2000D6E0D2EFED70C2EFCD70B2EFAD7000029
:1043F200E2DD1F0E0B6E710E0C6E1E0E0D6E0D2E7B
:10440200FED70C2EFCD70B2EFAD7000094DE020149
:10441200AD6BAE6B390EAF6F000EB06F9CDF020159
:10442200AD6B010EAE6F2D0EAF6F000EB06F93DF4E
:104432000201AD6B020EAE6F450EAF6F000EB06F94
:104442008ADFD8DE78DE0201AD6BAE6B540EAF6F41
:10445200000EB06F80DFC80E0201AD6F000EAE6FAE
:10446200AF6BFF0EB06F000EB16F94DF880EAD6FB1
:10447200000EAE6FAF6B400EB06F000EB16F8ADFF1
:10448200D6EC0AF00050010A0EE1880E0301B86F63
:10449200000EB96F1A0EBA6F000EBB6FFF0EBC6F23
:1044A200BAEC1DF001D0ECD7D6EC0AF00050010AAC
:1044B2000EE10301880EB86F000EB96F170EBA6FC6
:1044C200000EBB6FFF0EBC6FBAEC1DF001D0ECD733
:1044D200880E0201AD6F000EAE6FD0DE00C015F087
:1044E20001C016F0226A2B6A2C6A800E006E800EC2
:1044F2001618005C02E11550225C18E2D6EC0AF0B4
:104502000050010A12E10201C80E2B24AB6F000E0B
:104512002C20AC6FD8EC0BF0ABC2E1FFACC2E2FFD7
:1045220000C0E6FF2B4A2C2A222ADFD7C80E02013E
:10453200AD6F000EAE6F230EAF6F000EB06F1CDEBC
:1045420000C086F001C087F0000E011802E1000EE3
:10455200001824E00B0E00018625006E000E872154
:10456200016E00C086F001C087F000C0B5F201C044
:10457200B6F2220E0201B76F87EC1EF000C0C7F13F
:1045820001C0C8F1000E011802E1000E001805E09A
:10459200C7C1E1FFC8C1E2FFE66A05D0C80E00014B
:1045A200866F000E876F0201AD6B030EAE6F6B0E4E
:1045B200AF6F000EB06FCFDE0201AD6B030EAE6FB8
:0E45C20086C0AFF287C0B0F2C6DE45D7FFD785
:1049500010EE15F0710E006E010E016EAB0EF66ECC
:0E496000470EF76E000EF86E6DEC20F01200A0
:1045D000000000000000005F00000007000700145A
:1045E0007F147F14242A7F2A122313086462364919
:1045F0005620500008070300001C22410000412201
:104600001C002A1C7F1C2A08083E08080000703085
:104610000008080808080000606000201008040274
:104620003E5149453E00427F40007249494946217A
:1046300041494D331814127F1027454545393C4AEE
:104640004949314121110907364949493646494905
:10465000291E00001400000040340000000814224D
:1046600041141414141400412214080201590906BB
:104670003E415D594E7C1211127C7F494949363EBC
:10468000414141227F4141413E7F494949417F09A2
:104690000909013E414151737F0808087F00417FAD
:1046A00041002040413F017F081422417F404040AB
:1046B000407F021C027F7F0408107F3E4141413E43
:1046C0007F090909063E4151215E7F0919294626C5
:1046D0004949493203017F01033F4040403F1F20C9
:1046E00040201F3F4038403F6314081463030478A0
:1046F00004036159494D43007F41414102040810C0
:1047000020004141417F04020102044040404040FA
:10471000000307080020545438407F2844443838A8
:1047200044444428384444287F38545454180008DA
:104730007E09020C52524A3C7F0804047800447DF2
:1047400040002040403D007F1028440000417F4051
:10475000007C047804787C080404783844444438A5
:104760007C18242418182424187C7C080404084885
:104770005454542404043F44243C4040207C1C20D6
:1047800040201C3C4030403C44281028444C5050B1
:10479000503C4464544C440008364100000077000B
:0B47A000000041360800020102040284
:0247AB0000000C
:0347AD000D0A00F2
:0847B0002B4157533A302C0055
:0147B8000000
:0847B9006D6573736167650013
:0247C1000000F6
:0C47C30044656D6F20563A20302E310006
:0C47CF00457365796520506167657200D4
:0F47DB0053657474696E672075702041575300E1
:0947EA004D6573736167653A00C7
:0747F300286E756C6C2900B3
:0747FA00415445300D0A0097
:0F480100202020202020202020202020202000E8
:034810004F4B000B
:04481300302C300015
:03481700302C0042
:01481A00019C
:01481B00019B
:10481C000000007FCDCC4C7B0AD723786F12037538
:10482C0017B75171ACC5276EBD37066B95BF566770
:10483C0077CC2B645F700961FFE65B5D08E53C3C5F
:04484C006042221B89
:104850000000007F000020820000488500007A8868
:1048600000401C8C0050438F002474928096189650
:1048700020BC3E99286B6E9CF90215A0EC782DC1E6
:04488000CAF249E24D
:1048840001000000080000004000000000020000D9
:104894000010000000800000000004000000200060
:1048A40000000001000000080000004000000000BB
:1048B400010000000A00000064000000E80300009A
:1048C40010270000A086010040420F008096980047
:0848D40000E1F50500CA9A3B62
:1048DC0001000000100000000001000000100000AA
:1048EC00000001000000100000000001000000109A
:1048FC0041542B4157535355424F50454E3D302C4C
:0B490C00226D73676F7574220D0A00A6
:1049170041542B415753535542434C4F53453D3018
:034927000D0A0076
:10492A0030313233343536373839414243444546DB
:01493A00007C
:10493B00303132333435363738396162636465660A
:01494B00006B
:04494C000103070F4D
:020000040001F9
:06FFF800AEF7C4FFF8FFA4
:00000001FF
